:100000000C944C000C9400000C9400000C94000024
:100010000C9400000C9400000C9400000C94000060
:100020000C9400000C9400000C9400000C94000050
:100030000C9400000C9400000C9400000C94000040
:100040000C9400000C9400000C9400000C94000030
:100050000C9400000C9400000C9400000C94000020
:100060000C9400000C9400000C9400000C94000010
:100070000C9400000C9400000C9400000C94000000
:0C0080000C9400000C9400000C94000094
:10009800BFEFBDBFB0E1BEBF0E94FF00CDB7DEB766
:1000A8002897CDBFDEBF2196BFEFB7BBB0E0BABB84
:1000B800BFEFB1BBBFEFB2B9BFEFB4BBB7E8B6B9DA
:1000C800B0ECB7B909B304FF18C020910001309112
:1000D800010100E010E00217130764F4B2E0B3B9BD
:1000E800009100011091010101501040009300019E
:1000F80010930101B0E0B3B979C0B0E0BA83BB8313
:10010800B0E0BC83BD83B0E0BE83BF83B6B1B0644A
:10011800B6B906B10071003009F4FBCF04B102BBD7
:1001280005B108BB02B3053920F0B1E0BA83B0E0ED
:10013800BB8309B300FF04C0B1E0BE83B0E0BF8356
:1001480009B301FF04C0B1E0BC83B0E0BD832A81DC
:100158003B810E811F81200F311F0C811D81200FD3
:10016800311F00E010E0021713070CF03DC009B37F
:1001780004FD3AC0B4E0B883B0E0B983209100012F
:100188003091010108EE13E02017310784F408814B
:100198001981016008831983009100011091010100
:1001A8000F5F1F4F009300011093010106C00881E3
:1001B80019810C701070088319830C811D81B02F70
:1001C800B12B49F009B304FD06C0088119810C6000
:1001D8000883198306C00881198107701070088385
:1001E8001983088103B902C0B0E0B3B900910001D6
:0601F80005BB68CFFFCF3C
:0A008E0005900D920197E1F7089527
:1001FE00A0E0B1E0ECE8F0E082E090E00E94470081
:02020E00089551
:02008C00000072
:00000001FF
