:100000000C944C000C9400000C9400000C94000024
:100010000C9400000C9400000C9400000C94000060
:100020000C9400000C9400000C9400000C94000050
:100030000C9400000C9400000C9400000C94000040
:100040000C9400000C9400000C9400000C94000030
:100050000C9400000C9400000C9400000C94000020
:100060000C9400000C9400000C9400000C94000010
:100070000C9400000C9400000C9400000C94000000
:0C0080000C9400000C9400000C94000094
:10009800BFEFBDBFB0E1BEBF0E94EA00CDB7DEB77B
:1000A8002697CDBFDEBF2196BFEFB7BBB0E0BABB86
:1000B800BFEFB1BBBFEFB2B9BFEFB4BBB7E8B6B9DA
:1000C800B0ECB7B909B304FF18C020910001309112
:1000D800010100E010E00217130764F4B2E0B3B9BD
:1000E800009100011091010101501040009300019E
:1000F80010930101B0E0B3B964C0B0E0B883B9832C
:10010800B0E0BA83BB83B0E0BC83BD83B6B1B06452
:10011800B6B906B10071003009F4FBCF04B102BBD7
:1001280005B108BB02B3013820F0B1E0B883B0E0F4
:10013800B98309B3013021F4B1E0BC83B0E0BD83D9
:1001480009B3023021F4B1E0BA83B0E0BB8309B34C
:10015800033041F4B1E0BC83B0E0BD83B1E0BA83C1
:10016800B0E0BB83288139810C811D81200F311FAC
:100178000A811B81200F311F00E010E002171307CE
:10018800F4F4209100013091010104E610E02017F9
:100198003107ACF40A811B81B02FB12B19F0BDE0F7
:1001A800B3B902C0B5E0B3B90091000110910101E3
:1001B8000F5F1F4F009300011093010102C0B0E0D0
:0C01C800B3B90091000105BB7DCFFFCF53
:0A008E0005900D920197E1F7089527
:1001D400A0E0B1E0ECE8F0E082E090E00E944700AB
:0201E40008957C
:02008C00000072
:00000001FF
